{
  "_format": "hh-sol-artifact-1",
  "contractName": "PolygonNFT1155",
  "sourceName": "contracts/nft-minter/nft-minter-contracts/single-mint/NFT1155.sol",
  "abi": [
    {
      "inputs": [
        {
          "internalType": "string",
          "name": "_name",
          "type": "string"
        },
        {
          "internalType": "string",
          "name": "_symbol",
          "type": "string"
        },
        {
          "internalType": "address",
          "name": "_forwarder",
          "type": "address"
        }
      ],
      "stateMutability": "nonpayable",
      "type": "constructor"
    },
    {
      "anonymous": false,
      "inputs": [
        {
          "indexed": true,
          "internalType": "address",
          "name": "account",
          "type": "address"
        },
        {
          "indexed": true,
          "internalType": "address",
          "name": "operator",
          "type": "address"
        },
        {
          "indexed": false,
          "internalType": "bool",
          "name": "approved",
          "type": "bool"
        }
      ],
      "name": "ApprovalForAll",
      "type": "event"
    },
    {
      "anonymous": false,
      "inputs": [
        {
          "indexed": true,
          "internalType": "address",
          "name": "previousOwner",
          "type": "address"
        },
        {
          "indexed": true,
          "internalType": "address",
          "name": "newOwner",
          "type": "address"
        }
      ],
      "name": "OwnershipTransferred",
      "type": "event"
    },
    {
      "anonymous": false,
      "inputs": [
        {
          "indexed": true,
          "internalType": "address",
          "name": "operator",
          "type": "address"
        },
        {
          "indexed": true,
          "internalType": "address",
          "name": "from",
          "type": "address"
        },
        {
          "indexed": true,
          "internalType": "address",
          "name": "to",
          "type": "address"
        },
        {
          "indexed": false,
          "internalType": "uint256[]",
          "name": "ids",
          "type": "uint256[]"
        },
        {
          "indexed": false,
          "internalType": "uint256[]",
          "name": "values",
          "type": "uint256[]"
        }
      ],
      "name": "TransferBatch",
      "type": "event"
    },
    {
      "anonymous": false,
      "inputs": [
        {
          "indexed": true,
          "internalType": "address",
          "name": "operator",
          "type": "address"
        },
        {
          "indexed": true,
          "internalType": "address",
          "name": "from",
          "type": "address"
        },
        {
          "indexed": true,
          "internalType": "address",
          "name": "to",
          "type": "address"
        },
        {
          "indexed": false,
          "internalType": "uint256",
          "name": "id",
          "type": "uint256"
        },
        {
          "indexed": false,
          "internalType": "uint256",
          "name": "value",
          "type": "uint256"
        }
      ],
      "name": "TransferSingle",
      "type": "event"
    },
    {
      "anonymous": false,
      "inputs": [
        {
          "indexed": false,
          "internalType": "string",
          "name": "value",
          "type": "string"
        },
        {
          "indexed": true,
          "internalType": "uint256",
          "name": "id",
          "type": "uint256"
        }
      ],
      "name": "URI",
      "type": "event"
    },
    {
      "inputs": [
        {
          "internalType": "address",
          "name": "account",
          "type": "address"
        },
        {
          "internalType": "uint256",
          "name": "id",
          "type": "uint256"
        }
      ],
      "name": "balanceOf",
      "outputs": [
        {
          "internalType": "uint256",
          "name": "",
          "type": "uint256"
        }
      ],
      "stateMutability": "view",
      "type": "function"
    },
    {
      "inputs": [
        {
          "internalType": "address[]",
          "name": "accounts",
          "type": "address[]"
        },
        {
          "internalType": "uint256[]",
          "name": "ids",
          "type": "uint256[]"
        }
      ],
      "name": "balanceOfBatch",
      "outputs": [
        {
          "internalType": "uint256[]",
          "name": "",
          "type": "uint256[]"
        }
      ],
      "stateMutability": "view",
      "type": "function"
    },
    {
      "inputs": [
        {
          "internalType": "uint256",
          "name": "tokenId",
          "type": "uint256"
        },
        {
          "internalType": "uint256",
          "name": "amount",
          "type": "uint256"
        }
      ],
      "name": "burn",
      "outputs": [],
      "stateMutability": "nonpayable",
      "type": "function"
    },
    {
      "inputs": [
        {
          "internalType": "address",
          "name": "account",
          "type": "address"
        },
        {
          "internalType": "address",
          "name": "operator",
          "type": "address"
        }
      ],
      "name": "isApprovedForAll",
      "outputs": [
        {
          "internalType": "bool",
          "name": "",
          "type": "bool"
        }
      ],
      "stateMutability": "view",
      "type": "function"
    },
    {
      "inputs": [
        {
          "internalType": "address",
          "name": "forwarder",
          "type": "address"
        }
      ],
      "name": "isTrustedForwarder",
      "outputs": [
        {
          "internalType": "bool",
          "name": "",
          "type": "bool"
        }
      ],
      "stateMutability": "view",
      "type": "function"
    },
    {
      "inputs": [
        {
          "internalType": "address",
          "name": "to",
          "type": "address"
        },
        {
          "internalType": "string",
          "name": "_uri",
          "type": "string"
        },
        {
          "internalType": "uint256",
          "name": "amount",
          "type": "uint256"
        }
      ],
      "name": "mint",
      "outputs": [
        {
          "internalType": "uint256",
          "name": "",
          "type": "uint256"
        }
      ],
      "stateMutability": "nonpayable",
      "type": "function"
    },
    {
      "inputs": [],
      "name": "name",
      "outputs": [
        {
          "internalType": "string",
          "name": "",
          "type": "string"
        }
      ],
      "stateMutability": "view",
      "type": "function"
    },
    {
      "inputs": [],
      "name": "owner",
      "outputs": [
        {
          "internalType": "address",
          "name": "",
          "type": "address"
        }
      ],
      "stateMutability": "view",
      "type": "function"
    },
    {
      "inputs": [],
      "name": "renounceOwnership",
      "outputs": [],
      "stateMutability": "nonpayable",
      "type": "function"
    },
    {
      "inputs": [
        {
          "internalType": "address",
          "name": "from",
          "type": "address"
        },
        {
          "internalType": "address",
          "name": "to",
          "type": "address"
        },
        {
          "internalType": "uint256[]",
          "name": "ids",
          "type": "uint256[]"
        },
        {
          "internalType": "uint256[]",
          "name": "amounts",
          "type": "uint256[]"
        },
        {
          "internalType": "bytes",
          "name": "data",
          "type": "bytes"
        }
      ],
      "name": "safeBatchTransferFrom",
      "outputs": [],
      "stateMutability": "nonpayable",
      "type": "function"
    },
    {
      "inputs": [
        {
          "internalType": "address",
          "name": "from",
          "type": "address"
        },
        {
          "internalType": "address",
          "name": "to",
          "type": "address"
        },
        {
          "internalType": "uint256",
          "name": "id",
          "type": "uint256"
        },
        {
          "internalType": "uint256",
          "name": "amount",
          "type": "uint256"
        },
        {
          "internalType": "bytes",
          "name": "data",
          "type": "bytes"
        }
      ],
      "name": "safeTransferFrom",
      "outputs": [],
      "stateMutability": "nonpayable",
      "type": "function"
    },
    {
      "inputs": [
        {
          "internalType": "address",
          "name": "operator",
          "type": "address"
        },
        {
          "internalType": "bool",
          "name": "approved",
          "type": "bool"
        }
      ],
      "name": "setApprovalForAll",
      "outputs": [],
      "stateMutability": "nonpayable",
      "type": "function"
    },
    {
      "inputs": [
        {
          "internalType": "string",
          "name": "newuri",
          "type": "string"
        }
      ],
      "name": "setURI",
      "outputs": [],
      "stateMutability": "nonpayable",
      "type": "function"
    },
    {
      "inputs": [
        {
          "internalType": "bytes4",
          "name": "interfaceId",
          "type": "bytes4"
        }
      ],
      "name": "supportsInterface",
      "outputs": [
        {
          "internalType": "bool",
          "name": "",
          "type": "bool"
        }
      ],
      "stateMutability": "view",
      "type": "function"
    },
    {
      "inputs": [],
      "name": "symbol",
      "outputs": [
        {
          "internalType": "string",
          "name": "",
          "type": "string"
        }
      ],
      "stateMutability": "view",
      "type": "function"
    },
    {
      "inputs": [
        {
          "internalType": "uint256",
          "name": "",
          "type": "uint256"
        }
      ],
      "name": "tokenURI",
      "outputs": [
        {
          "internalType": "string",
          "name": "",
          "type": "string"
        }
      ],
      "stateMutability": "view",
      "type": "function"
    },
    {
      "inputs": [
        {
          "internalType": "address",
          "name": "newOwner",
          "type": "address"
        }
      ],
      "name": "transferOwnership",
      "outputs": [],
      "stateMutability": "nonpayable",
      "type": "function"
    },
    {
      "inputs": [],
      "name": "trustedForwarder",
      "outputs": [
        {
          "internalType": "address",
          "name": "",
          "type": "address"
        }
      ],
      "stateMutability": "view",
      "type": "function"
    },
    {
      "inputs": [
        {
          "internalType": "uint256",
          "name": "_id",
          "type": "uint256"
        }
      ],
      "name": "uri",
      "outputs": [
        {
          "internalType": "string",
          "name": "",
          "type": "string"
        }
      ],
      "stateMutability": "view",
      "type": "function"
    }
  ],
  "bytecode": "0x60a06040523480156200001157600080fd5b5060405162003e2f38038062003e2f833981810160405281019062000037919062000567565b806040518060200160405280600081525062000059816200012b60201b60201c565b508073ffffffffffffffffffffffffffffffffffffffff1660808173ffffffffffffffffffffffffffffffffffffffff168152505050620000af620000a36200014760201b60201c565b6200016360201b60201c565b8260049080519060200190620000c7929190620002b5565b508160059080519060200190620000e0929190620002b5565b5080600660006101000a81548173ffffffffffffffffffffffffffffffffffffffff021916908373ffffffffffffffffffffffffffffffffffffffff16021790555050505062000666565b806002908051906020019062000143929190620002b5565b5050565b60006200015e6200022960201b62000e491760201c565b905090565b6000600360009054906101000a900473ffffffffffffffffffffffffffffffffffffffff16905081600360006101000a81548173ffffffffffffffffffffffffffffffffffffffff021916908373ffffffffffffffffffffffffffffffffffffffff1602179055508173ffffffffffffffffffffffffffffffffffffffff168173ffffffffffffffffffffffffffffffffffffffff167f8be0079c531659141344cd1fd0a4f28419497f9722a3daafe3b4186f6b6457e060405160405180910390a35050565b60006200023c336200027360201b60201c565b156200025257601436033560601c90506200026f565b62000267620002ad60201b62000e7b1760201c565b905062000270565b5b90565b600060805173ffffffffffffffffffffffffffffffffffffffff168273ffffffffffffffffffffffffffffffffffffffff16149050919050565b600033905090565b828054620002c39062000630565b90600052602060002090601f016020900481019282620002e7576000855562000333565b82601f106200030257805160ff191683800117855562000333565b8280016001018555821562000333579182015b828111156200033257825182559160200191906001019062000315565b5b50905062000342919062000346565b5090565b5b808211156200036157600081600090555060010162000347565b5090565b6000604051905090565b600080fd5b600080fd5b600080fd5b600080fd5b6000601f19601f8301169050919050565b7f4e487b7100000000000000000000000000000000000000000000000000000000600052604160045260246000fd5b620003ce8262000383565b810181811067ffffffffffffffff82111715620003f057620003ef62000394565b5b80604052505050565b60006200040562000365565b9050620004138282620003c3565b919050565b600067ffffffffffffffff82111562000436576200043562000394565b5b620004418262000383565b9050602081019050919050565b60005b838110156200046e57808201518184015260208101905062000451565b838111156200047e576000848401525b50505050565b60006200049b620004958462000418565b620003f9565b905082815260208101848484011115620004ba57620004b96200037e565b5b620004c78482856200044e565b509392505050565b600082601f830112620004e757620004e662000379565b5b8151620004f984826020860162000484565b91505092915050565b600073ffffffffffffffffffffffffffffffffffffffff82169050919050565b60006200052f8262000502565b9050919050565b620005418162000522565b81146200054d57600080fd5b50565b600081519050620005618162000536565b92915050565b6000806000606084860312156200058357620005826200036f565b5b600084015167ffffffffffffffff811115620005a457620005a362000374565b5b620005b286828701620004cf565b935050602084015167ffffffffffffffff811115620005d657620005d562000374565b5b620005e486828701620004cf565b9250506040620005f78682870162000550565b9150509250925092565b7f4e487b7100000000000000000000000000000000000000000000000000000000600052602260045260246000fd5b600060028204905060018216806200064957607f821691505b6020821081141562000660576200065f62000601565b5b50919050565b6080516137ad6200068260003960006108f301526137ad6000f3fe608060405234801561001057600080fd5b50600436106101205760003560e01c80637da0a877116100ad578063ba7aef4311610071578063ba7aef4314610307578063c87b56dd14610337578063e985e9c514610367578063f242432a14610397578063f2fde38b146103b357610120565b80637da0a877146102755780638da5cb5b1461029357806395d89b41146102b1578063a22cb465146102cf578063b390c0ab146102eb57610120565b80630e89341c116100f45780630e89341c146101bf5780632eb2c2d6146101ef5780634e1273f41461020b578063572b6c051461023b578063715018a61461026b57610120565b8062fdd58e1461012557806301ffc9a71461015557806302fe53051461018557806306fdde03146101a1575b600080fd5b61013f600480360381019061013a91906120a0565b6103cf565b60405161014c91906120ef565b60405180910390f35b61016f600480360381019061016a9190612162565b610498565b60405161017c91906121aa565b60405180910390f35b61019f600480360381019061019a919061230b565b61057a565b005b6101a9610602565b6040516101b691906123dc565b60405180910390f35b6101d960048036038101906101d491906123fe565b610690565b6040516101e691906123dc565b60405180910390f35b61020960048036038101906102049190612594565b610735565b005b61022560048036038101906102209190612726565b6107d6565b604051610232919061285c565b60405180910390f35b6102556004803603810190610250919061287e565b6108ef565b60405161026291906121aa565b60405180910390f35b610273610947565b005b61027d6109cf565b60405161028a91906128ba565b60405180910390f35b61029b6109f5565b6040516102a891906128ba565b60405180910390f35b6102b9610a1f565b6040516102c691906123dc565b60405180910390f35b6102e960048036038101906102e49190612901565b610aad565b005b61030560048036038101906103009190612941565b610ac3565b005b610321600480360381019061031c9190612981565b610b32565b60405161032e91906120ef565b60405180910390f35b610351600480360381019061034c91906123fe565b610b7c565b60405161035e91906123dc565b60405180910390f35b610381600480360381019061037c91906129f0565b610c1c565b60405161038e91906121aa565b60405180910390f35b6103b160048036038101906103ac9190612a30565b610cb0565b005b6103cd60048036038101906103c8919061287e565b610d51565b005b60008073ffffffffffffffffffffffffffffffffffffffff168373ffffffffffffffffffffffffffffffffffffffff161415610440576040517f08c379a000000000000000000000000000000000000000000000000000000000815260040161043790612b39565b60405180910390fd5b60008083815260200190815260200160002060008473ffffffffffffffffffffffffffffffffffffffff1673ffffffffffffffffffffffffffffffffffffffff16815260200190815260200160002054905092915050565b60007fd9b67a26000000000000000000000000000000000000000000000000000000007bffffffffffffffffffffffffffffffffffffffffffffffffffffffff1916827bffffffffffffffffffffffffffffffffffffffffffffffffffffffff1916148061056357507f0e89341c000000000000000000000000000000000000000000000000000000007bffffffffffffffffffffffffffffffffffffffffffffffffffffffff1916827bffffffffffffffffffffffffffffffffffffffffffffffffffffffff1916145b80610573575061057282610e83565b5b9050919050565b610582610eed565b73ffffffffffffffffffffffffffffffffffffffff166105a06109f5565b73ffffffffffffffffffffffffffffffffffffffff16146105f6576040517f08c379a00000000000000000000000000000000000000000000000000000000081526004016105ed90612ba5565b60405180910390fd5b6105ff81610efc565b50565b6004805461060f90612bf4565b80601f016020809104026020016040519081016040528092919081815260200182805461063b90612bf4565b80156106885780601f1061065d57610100808354040283529160200191610688565b820191906000526020600020905b81548152906001019060200180831161066b57829003601f168201915b505050505081565b60606008600083815260200190815260200160002080546106b090612bf4565b80601f01602080910402602001604051908101604052809291908181526020018280546106dc90612bf4565b80156107295780601f106106fe57610100808354040283529160200191610729565b820191906000526020600020905b81548152906001019060200180831161070c57829003601f168201915b50505050509050919050565b61073d610eed565b73ffffffffffffffffffffffffffffffffffffffff168573ffffffffffffffffffffffffffffffffffffffff16148061078357506107828561077d610eed565b610c1c565b5b6107c2576040517f08c379a00000000000000000000000000000000000000000000000000000000081526004016107b990612c98565b60405180910390fd5b6107cf8585858585610f16565b5050505050565b6060815183511461081c576040517f08c379a000000000000000000000000000000000000000000000000000000000815260040161081390612d2a565b60405180910390fd5b6000835167ffffffffffffffff811115610839576108386121e0565b5b6040519080825280602002602001820160405280156108675781602001602082028036833780820191505090505b50905060005b84518110156108e4576108b485828151811061088c5761088b612d4a565b5b60200260200101518583815181106108a7576108a6612d4a565b5b60200260200101516103cf565b8282815181106108c7576108c6612d4a565b5b602002602001018181525050806108dd90612da8565b905061086d565b508091505092915050565b60007f000000000000000000000000000000000000000000000000000000000000000073ffffffffffffffffffffffffffffffffffffffff168273ffffffffffffffffffffffffffffffffffffffff16149050919050565b61094f610eed565b73ffffffffffffffffffffffffffffffffffffffff1661096d6109f5565b73ffffffffffffffffffffffffffffffffffffffff16146109c3576040517f08c379a00000000000000000000000000000000000000000000000000000000081526004016109ba90612ba5565b60405180910390fd5b6109cd600061122a565b565b600660009054906101000a900473ffffffffffffffffffffffffffffffffffffffff1681565b6000600360009054906101000a900473ffffffffffffffffffffffffffffffffffffffff16905090565b60058054610a2c90612bf4565b80601f0160208091040260200160405190810160405280929190818152602001828054610a5890612bf4565b8015610aa55780601f10610a7a57610100808354040283529160200191610aa5565b820191906000526020600020905b815481529060010190602001808311610a8857829003601f168201915b505050505081565b610abf610ab8610eed565b83836112f0565b5050565b6000610ad6610ad0610eed565b846103cf565b905060008111610b1b576040517f08c379a0000000000000000000000000000000000000000000000000000000008152600401610b1290612e3d565b60405180910390fd5b610b2d610b26610eed565b848461145d565b505050565b6000610b3e600761167a565b6000610b4a6007611690565b9050610b678582856040518060200160405280600081525061169e565b610b718185611834565b809150509392505050565b60086020528060005260406000206000915090508054610b9b90612bf4565b80601f0160208091040260200160405190810160405280929190818152602001828054610bc790612bf4565b8015610c145780601f10610be957610100808354040283529160200191610c14565b820191906000526020600020905b815481529060010190602001808311610bf757829003601f168201915b505050505081565b6000600160008473ffffffffffffffffffffffffffffffffffffffff1673ffffffffffffffffffffffffffffffffffffffff16815260200190815260200160002060008373ffffffffffffffffffffffffffffffffffffffff1673ffffffffffffffffffffffffffffffffffffffff16815260200190815260200160002060009054906101000a900460ff16905092915050565b610cb8610eed565b73ffffffffffffffffffffffffffffffffffffffff168573ffffffffffffffffffffffffffffffffffffffff161480610cfe5750610cfd85610cf8610eed565b610c1c565b5b610d3d576040517f08c379a0000000000000000000000000000000000000000000000000000000008152600401610d3490612ecf565b60405180910390fd5b610d4a8585858585611860565b5050505050565b610d59610eed565b73ffffffffffffffffffffffffffffffffffffffff16610d776109f5565b73ffffffffffffffffffffffffffffffffffffffff1614610dcd576040517f08c379a0000000000000000000000000000000000000000000000000000000008152600401610dc490612ba5565b60405180910390fd5b600073ffffffffffffffffffffffffffffffffffffffff168173ffffffffffffffffffffffffffffffffffffffff161415610e3d576040517f08c379a0000000000000000000000000000000000000000000000000000000008152600401610e3490612f61565b60405180910390fd5b610e468161122a565b50565b6000610e54336108ef565b15610e6857601436033560601c9050610e77565b610e70610e7b565b9050610e78565b5b90565b600033905090565b60007f01ffc9a7000000000000000000000000000000000000000000000000000000007bffffffffffffffffffffffffffffffffffffffffffffffffffffffff1916827bffffffffffffffffffffffffffffffffffffffffffffffffffffffff1916149050919050565b6000610ef7610e49565b905090565b8060029080519060200190610f12929190611f55565b5050565b8151835114610f5a576040517f08c379a0000000000000000000000000000000000000000000000000000000008152600401610f5190612ff3565b60405180910390fd5b600073ffffffffffffffffffffffffffffffffffffffff168473ffffffffffffffffffffffffffffffffffffffff161415610fca576040517f08c379a0000000000000000000000000000000000000000000000000000000008152600401610fc190613085565b60405180910390fd5b6000610fd4610eed565b9050610fe4818787878787611ae2565b60005b845181101561119557600085828151811061100557611004612d4a565b5b60200260200101519050600085838151811061102457611023612d4a565b5b60200260200101519050600080600084815260200190815260200160002060008b73ffffffffffffffffffffffffffffffffffffffff1673ffffffffffffffffffffffffffffffffffffffff168152602001908152602001600020549050818110156110c5576040517f08c379a00000000000000000000000000000000000000000000000000000000081526004016110bc90613117565b60405180910390fd5b81810360008085815260200190815260200160002060008c73ffffffffffffffffffffffffffffffffffffffff1673ffffffffffffffffffffffffffffffffffffffff168152602001908152602001600020819055508160008085815260200190815260200160002060008b73ffffffffffffffffffffffffffffffffffffffff1673ffffffffffffffffffffffffffffffffffffffff168152602001908152602001600020600082825461117a9190613137565b925050819055505050508061118e90612da8565b9050610fe7565b508473ffffffffffffffffffffffffffffffffffffffff168673ffffffffffffffffffffffffffffffffffffffff168273ffffffffffffffffffffffffffffffffffffffff167f4a39dc06d4c0dbc64b70af90fd698a233a518aa5d07e595d983b8c0526c8f7fb878760405161120c92919061318d565b60405180910390a4611222818787878787611aea565b505050505050565b6000600360009054906101000a900473ffffffffffffffffffffffffffffffffffffffff16905081600360006101000a81548173ffffffffffffffffffffffffffffffffffffffff021916908373ffffffffffffffffffffffffffffffffffffffff1602179055508173ffffffffffffffffffffffffffffffffffffffff168173ffffffffffffffffffffffffffffffffffffffff167f8be0079c531659141344cd1fd0a4f28419497f9722a3daafe3b4186f6b6457e060405160405180910390a35050565b8173ffffffffffffffffffffffffffffffffffffffff168373ffffffffffffffffffffffffffffffffffffffff16141561135f576040517f08c379a000000000000000000000000000000000000000000000000000000000815260040161135690613236565b60405180910390fd5b80600160008573ffffffffffffffffffffffffffffffffffffffff1673ffffffffffffffffffffffffffffffffffffffff16815260200190815260200160002060008473ffffffffffffffffffffffffffffffffffffffff1673ffffffffffffffffffffffffffffffffffffffff16815260200190815260200160002060006101000a81548160ff0219169083151502179055508173ffffffffffffffffffffffffffffffffffffffff168373ffffffffffffffffffffffffffffffffffffffff167f17307eab39ab6107e8899845ad3d59bd9653f200f220920489ca2b5937696c318360405161145091906121aa565b60405180910390a3505050565b600073ffffffffffffffffffffffffffffffffffffffff168373ffffffffffffffffffffffffffffffffffffffff1614156114cd576040517f08c379a00000000000000000000000000000000000000000000000000000000081526004016114c4906132c8565b60405180910390fd5b60006114d7610eed565b9050611507818560006114e987611cd1565b6114f287611cd1565b60405180602001604052806000815250611ae2565b600080600085815260200190815260200160002060008673ffffffffffffffffffffffffffffffffffffffff1673ffffffffffffffffffffffffffffffffffffffff1681526020019081526020016000205490508281101561159e576040517f08c379a00000000000000000000000000000000000000000000000000000000081526004016115959061335a565b60405180910390fd5b82810360008086815260200190815260200160002060008773ffffffffffffffffffffffffffffffffffffffff1673ffffffffffffffffffffffffffffffffffffffff16815260200190815260200160002081905550600073ffffffffffffffffffffffffffffffffffffffff168573ffffffffffffffffffffffffffffffffffffffff168373ffffffffffffffffffffffffffffffffffffffff167fc3d58168c5ae7397731d063d5bbf3d657854427343f4c083240f7aacaa2d0f62878760405161166b92919061337a565b60405180910390a45050505050565b6001816000016000828254019250508190555050565b600081600001549050919050565b600073ffffffffffffffffffffffffffffffffffffffff168473ffffffffffffffffffffffffffffffffffffffff16141561170e576040517f08c379a000000000000000000000000000000000000000000000000000000000815260040161170590613415565b60405180910390fd5b6000611718610eed565b90506117398160008761172a88611cd1565b61173388611cd1565b87611ae2565b8260008086815260200190815260200160002060008773ffffffffffffffffffffffffffffffffffffffff1673ffffffffffffffffffffffffffffffffffffffff16815260200190815260200160002060008282546117989190613137565b925050819055508473ffffffffffffffffffffffffffffffffffffffff16600073ffffffffffffffffffffffffffffffffffffffff168273ffffffffffffffffffffffffffffffffffffffff167fc3d58168c5ae7397731d063d5bbf3d657854427343f4c083240f7aacaa2d0f62878760405161181692919061337a565b60405180910390a461182d81600087878787611d4b565b5050505050565b8060086000848152602001908152602001600020908051906020019061185b929190611f55565b505050565b600073ffffffffffffffffffffffffffffffffffffffff168473ffffffffffffffffffffffffffffffffffffffff1614156118d0576040517f08c379a00000000000000000000000000000000000000000000000000000000081526004016118c790613085565b60405180910390fd5b60006118da610eed565b90506118fa8187876118eb88611cd1565b6118f488611cd1565b87611ae2565b600080600086815260200190815260200160002060008873ffffffffffffffffffffffffffffffffffffffff1673ffffffffffffffffffffffffffffffffffffffff16815260200190815260200160002054905083811015611991576040517f08c379a000000000000000000000000000000000000000000000000000000000815260040161198890613117565b60405180910390fd5b83810360008087815260200190815260200160002060008973ffffffffffffffffffffffffffffffffffffffff1673ffffffffffffffffffffffffffffffffffffffff168152602001908152602001600020819055508360008087815260200190815260200160002060008873ffffffffffffffffffffffffffffffffffffffff1673ffffffffffffffffffffffffffffffffffffffff1681526020019081526020016000206000828254611a469190613137565b925050819055508573ffffffffffffffffffffffffffffffffffffffff168773ffffffffffffffffffffffffffffffffffffffff168373ffffffffffffffffffffffffffffffffffffffff167fc3d58168c5ae7397731d063d5bbf3d657854427343f4c083240f7aacaa2d0f628888604051611ac392919061337a565b60405180910390a4611ad9828888888888611d4b565b50505050505050565b505050505050565b611b098473ffffffffffffffffffffffffffffffffffffffff16611f32565b15611cc9578373ffffffffffffffffffffffffffffffffffffffff1663bc197c8187878686866040518663ffffffff1660e01b8152600401611b4f95949392919061348a565b602060405180830381600087803b158015611b6957600080fd5b505af1925050508015611b9a57506040513d601f19601f82011682018060405250810190611b979190613507565b60015b611c4057611ba6613541565b806308c379a01415611c035750611bbb613563565b80611bc65750611c05565b806040517f08c379a0000000000000000000000000000000000000000000000000000000008152600401611bfa91906123dc565b60405180910390fd5b505b6040517f08c379a0000000000000000000000000000000000000000000000000000000008152600401611c379061366b565b60405180910390fd5b63bc197c8160e01b7bffffffffffffffffffffffffffffffffffffffffffffffffffffffff1916817bffffffffffffffffffffffffffffffffffffffffffffffffffffffff191614611cc7576040517f08c379a0000000000000000000000000000000000000000000000000000000008152600401611cbe906136fd565b60405180910390fd5b505b505050505050565b60606000600167ffffffffffffffff811115611cf057611cef6121e0565b5b604051908082528060200260200182016040528015611d1e5781602001602082028036833780820191505090505b5090508281600081518110611d3657611d35612d4a565b5b60200260200101818152505080915050919050565b611d6a8473ffffffffffffffffffffffffffffffffffffffff16611f32565b15611f2a578373ffffffffffffffffffffffffffffffffffffffff1663f23a6e6187878686866040518663ffffffff1660e01b8152600401611db095949392919061371d565b602060405180830381600087803b158015611dca57600080fd5b505af1925050508015611dfb57506040513d601f19601f82011682018060405250810190611df89190613507565b60015b611ea157611e07613541565b806308c379a01415611e645750611e1c613563565b80611e275750611e66565b806040517f08c379a0000000000000000000000000000000000000000000000000000000008152600401611e5b91906123dc565b60405180910390fd5b505b6040517f08c379a0000000000000000000000000000000000000000000000000000000008152600401611e989061366b565b60405180910390fd5b63f23a6e6160e01b7bffffffffffffffffffffffffffffffffffffffffffffffffffffffff1916817bffffffffffffffffffffffffffffffffffffffffffffffffffffffff191614611f28576040517f08c379a0000000000000000000000000000000000000000000000000000000008152600401611f1f906136fd565b60405180910390fd5b505b505050505050565b6000808273ffffffffffffffffffffffffffffffffffffffff163b119050919050565b828054611f6190612bf4565b90600052602060002090601f016020900481019282611f835760008555611fca565b82601f10611f9c57805160ff1916838001178555611fca565b82800160010185558215611fca579182015b82811115611fc9578251825591602001919060010190611fae565b5b509050611fd79190611fdb565b5090565b5b80821115611ff4576000816000905550600101611fdc565b5090565b6000604051905090565b600080fd5b600080fd5b600073ffffffffffffffffffffffffffffffffffffffff82169050919050565b60006120378261200c565b9050919050565b6120478161202c565b811461205257600080fd5b50565b6000813590506120648161203e565b92915050565b6000819050919050565b61207d8161206a565b811461208857600080fd5b50565b60008135905061209a81612074565b92915050565b600080604083850312156120b7576120b6612002565b5b60006120c585828601612055565b92505060206120d68582860161208b565b9150509250929050565b6120e98161206a565b82525050565b600060208201905061210460008301846120e0565b92915050565b60007fffffffff0000000000000000000000000000000000000000000000000000000082169050919050565b61213f8161210a565b811461214a57600080fd5b50565b60008135905061215c81612136565b92915050565b60006020828403121561217857612177612002565b5b60006121868482850161214d565b91505092915050565b60008115159050919050565b6121a48161218f565b82525050565b60006020820190506121bf600083018461219b565b92915050565b600080fd5b600080fd5b6000601f19601f8301169050919050565b7f4e487b7100000000000000000000000000000000000000000000000000000000600052604160045260246000fd5b612218826121cf565b810181811067ffffffffffffffff82111715612237576122366121e0565b5b80604052505050565b600061224a611ff8565b9050612256828261220f565b919050565b600067ffffffffffffffff821115612276576122756121e0565b5b61227f826121cf565b9050602081019050919050565b82818337600083830152505050565b60006122ae6122a98461225b565b612240565b9050828152602081018484840111156122ca576122c96121ca565b5b6122d584828561228c565b509392505050565b600082601f8301126122f2576122f16121c5565b5b813561230284826020860161229b565b91505092915050565b60006020828403121561232157612320612002565b5b600082013567ffffffffffffffff81111561233f5761233e612007565b5b61234b848285016122dd565b91505092915050565b600081519050919050565b600082825260208201905092915050565b60005b8381101561238e578082015181840152602081019050612373565b8381111561239d576000848401525b50505050565b60006123ae82612354565b6123b8818561235f565b93506123c8818560208601612370565b6123d1816121cf565b840191505092915050565b600060208201905081810360008301526123f681846123a3565b905092915050565b60006020828403121561241457612413612002565b5b60006124228482850161208b565b91505092915050565b600067ffffffffffffffff821115612446576124456121e0565b5b602082029050602081019050919050565b600080fd5b600061246f61246a8461242b565b612240565b9050808382526020820190506020840283018581111561249257612491612457565b5b835b818110156124bb57806124a7888261208b565b845260208401935050602081019050612494565b5050509392505050565b600082601f8301126124da576124d96121c5565b5b81356124ea84826020860161245c565b91505092915050565b600067ffffffffffffffff82111561250e5761250d6121e0565b5b612517826121cf565b9050602081019050919050565b6000612537612532846124f3565b612240565b905082815260208101848484011115612553576125526121ca565b5b61255e84828561228c565b509392505050565b600082601f83011261257b5761257a6121c5565b5b813561258b848260208601612524565b91505092915050565b600080600080600060a086880312156125b0576125af612002565b5b60006125be88828901612055565b95505060206125cf88828901612055565b945050604086013567ffffffffffffffff8111156125f0576125ef612007565b5b6125fc888289016124c5565b935050606086013567ffffffffffffffff81111561261d5761261c612007565b5b612629888289016124c5565b925050608086013567ffffffffffffffff81111561264a57612649612007565b5b61265688828901612566565b9150509295509295909350565b600067ffffffffffffffff82111561267e5761267d6121e0565b5b602082029050602081019050919050565b60006126a261269d84612663565b612240565b905080838252602082019050602084028301858111156126c5576126c4612457565b5b835b818110156126ee57806126da8882612055565b8452602084019350506020810190506126c7565b5050509392505050565b600082601f83011261270d5761270c6121c5565b5b813561271d84826020860161268f565b91505092915050565b6000806040838503121561273d5761273c612002565b5b600083013567ffffffffffffffff81111561275b5761275a612007565b5b612767858286016126f8565b925050602083013567ffffffffffffffff81111561278857612787612007565b5b612794858286016124c5565b9150509250929050565b600081519050919050565b600082825260208201905092915050565b6000819050602082019050919050565b6127d38161206a565b82525050565b60006127e583836127ca565b60208301905092915050565b6000602082019050919050565b60006128098261279e565b61281381856127a9565b935061281e836127ba565b8060005b8381101561284f57815161283688826127d9565b9750612841836127f1565b925050600181019050612822565b5085935050505092915050565b6000602082019050818103600083015261287681846127fe565b905092915050565b60006020828403121561289457612893612002565b5b60006128a284828501612055565b91505092915050565b6128b48161202c565b82525050565b60006020820190506128cf60008301846128ab565b92915050565b6128de8161218f565b81146128e957600080fd5b50565b6000813590506128fb816128d5565b92915050565b6000806040838503121561291857612917612002565b5b600061292685828601612055565b9250506020612937858286016128ec565b9150509250929050565b6000806040838503121561295857612957612002565b5b60006129668582860161208b565b92505060206129778582860161208b565b9150509250929050565b60008060006060848603121561299a57612999612002565b5b60006129a886828701612055565b935050602084013567ffffffffffffffff8111156129c9576129c8612007565b5b6129d5868287016122dd565b92505060406129e68682870161208b565b9150509250925092565b60008060408385031215612a0757612a06612002565b5b6000612a1585828601612055565b9250506020612a2685828601612055565b9150509250929050565b600080600080600060a08688031215612a4c57612a4b612002565b5b6000612a5a88828901612055565b9550506020612a6b88828901612055565b9450506040612a7c8882890161208b565b9350506060612a8d8882890161208b565b925050608086013567ffffffffffffffff811115612aae57612aad612007565b5b612aba88828901612566565b9150509295509295909350565b7f455243313135353a2062616c616e636520717565727920666f7220746865207a60008201527f65726f2061646472657373000000000000000000000000000000000000000000602082015250565b6000612b23602b8361235f565b9150612b2e82612ac7565b604082019050919050565b60006020820190508181036000830152612b5281612b16565b9050919050565b7f4f776e61626c653a2063616c6c6572206973206e6f7420746865206f776e6572600082015250565b6000612b8f60208361235f565b9150612b9a82612b59565b602082019050919050565b60006020820190508181036000830152612bbe81612b82565b9050919050565b7f4e487b7100000000000000000000000000000000000000000000000000000000600052602260045260246000fd5b60006002820490506001821680612c0c57607f821691505b60208210811415612c2057612c1f612bc5565b5b50919050565b7f455243313135353a207472616e736665722063616c6c6572206973206e6f742060008201527f6f776e6572206e6f7220617070726f7665640000000000000000000000000000602082015250565b6000612c8260328361235f565b9150612c8d82612c26565b604082019050919050565b60006020820190508181036000830152612cb181612c75565b9050919050565b7f455243313135353a206163636f756e747320616e6420696473206c656e67746860008201527f206d69736d617463680000000000000000000000000000000000000000000000602082015250565b6000612d1460298361235f565b9150612d1f82612cb8565b604082019050919050565b60006020820190508181036000830152612d4381612d07565b9050919050565b7f4e487b7100000000000000000000000000000000000000000000000000000000600052603260045260246000fd5b7f4e487b7100000000000000000000000000000000000000000000000000000000600052601160045260246000fd5b6000612db38261206a565b91507fffffffffffffffffffffffffffffffffffffffffffffffffffffffffffffffff821415612de657612de5612d79565b5b600182019050919050565b7f455243313135353a2043616c6c6572206973206e6f7420746865206f776e6572600082015250565b6000612e2760208361235f565b9150612e3282612df1565b602082019050919050565b60006020820190508181036000830152612e5681612e1a565b9050919050565b7f455243313135353a2063616c6c6572206973206e6f74206f776e6572206e6f7260008201527f20617070726f7665640000000000000000000000000000000000000000000000602082015250565b6000612eb960298361235f565b9150612ec482612e5d565b604082019050919050565b60006020820190508181036000830152612ee881612eac565b9050919050565b7f4f776e61626c653a206e6577206f776e657220697320746865207a65726f206160008201527f6464726573730000000000000000000000000000000000000000000000000000602082015250565b6000612f4b60268361235f565b9150612f5682612eef565b604082019050919050565b60006020820190508181036000830152612f7a81612f3e565b9050919050565b7f455243313135353a2069647320616e6420616d6f756e7473206c656e6774682060008201527f6d69736d61746368000000000000000000000000000000000000000000000000602082015250565b6000612fdd60288361235f565b9150612fe882612f81565b604082019050919050565b6000602082019050818103600083015261300c81612fd0565b9050919050565b7f455243313135353a207472616e7366657220746f20746865207a65726f20616460008201527f6472657373000000000000000000000000000000000000000000000000000000602082015250565b600061306f60258361235f565b915061307a82613013565b604082019050919050565b6000602082019050818103600083015261309e81613062565b9050919050565b7f455243313135353a20696e73756666696369656e742062616c616e636520666f60008201527f72207472616e7366657200000000000000000000000000000000000000000000602082015250565b6000613101602a8361235f565b915061310c826130a5565b604082019050919050565b60006020820190508181036000830152613130816130f4565b9050919050565b60006131428261206a565b915061314d8361206a565b9250827fffffffffffffffffffffffffffffffffffffffffffffffffffffffffffffffff0382111561318257613181612d79565b5b828201905092915050565b600060408201905081810360008301526131a781856127fe565b905081810360208301526131bb81846127fe565b90509392505050565b7f455243313135353a2073657474696e6720617070726f76616c2073746174757360008201527f20666f722073656c660000000000000000000000000000000000000000000000602082015250565b600061322060298361235f565b915061322b826131c4565b604082019050919050565b6000602082019050818103600083015261324f81613213565b9050919050565b7f455243313135353a206275726e2066726f6d20746865207a65726f206164647260008201527f6573730000000000000000000000000000000000000000000000000000000000602082015250565b60006132b260238361235f565b91506132bd82613256565b604082019050919050565b600060208201905081810360008301526132e1816132a5565b9050919050565b7f455243313135353a206275726e20616d6f756e7420657863656564732062616c60008201527f616e636500000000000000000000000000000000000000000000000000000000602082015250565b600061334460248361235f565b915061334f826132e8565b604082019050919050565b6000602082019050818103600083015261337381613337565b9050919050565b600060408201905061338f60008301856120e0565b61339c60208301846120e0565b9392505050565b7f455243313135353a206d696e7420746f20746865207a65726f2061646472657360008201527f7300000000000000000000000000000000000000000000000000000000000000602082015250565b60006133ff60218361235f565b915061340a826133a3565b604082019050919050565b6000602082019050818103600083015261342e816133f2565b9050919050565b600081519050919050565b600082825260208201905092915050565b600061345c82613435565b6134668185613440565b9350613476818560208601612370565b61347f816121cf565b840191505092915050565b600060a08201905061349f60008301886128ab565b6134ac60208301876128ab565b81810360408301526134be81866127fe565b905081810360608301526134d281856127fe565b905081810360808301526134e68184613451565b90509695505050505050565b60008151905061350181612136565b92915050565b60006020828403121561351d5761351c612002565b5b600061352b848285016134f2565b91505092915050565b60008160e01c9050919050565b600060033d11156135605760046000803e61355d600051613534565b90505b90565b600060443d1015613573576135f6565b61357b611ff8565b60043d036004823e80513d602482011167ffffffffffffffff821117156135a35750506135f6565b808201805167ffffffffffffffff8111156135c157505050506135f6565b80602083010160043d0385018111156135de5750505050506135f6565b6135ed8260200185018661220f565b82955050505050505b90565b7f455243313135353a207472616e7366657220746f206e6f6e204552433131353560008201527f526563656976657220696d706c656d656e746572000000000000000000000000602082015250565b600061365560348361235f565b9150613660826135f9565b604082019050919050565b6000602082019050818103600083015261368481613648565b9050919050565b7f455243313135353a204552433131353552656365697665722072656a6563746560008201527f6420746f6b656e73000000000000000000000000000000000000000000000000602082015250565b60006136e760288361235f565b91506136f28261368b565b604082019050919050565b60006020820190508181036000830152613716816136da565b9050919050565b600060a08201905061373260008301886128ab565b61373f60208301876128ab565b61374c60408301866120e0565b61375960608301856120e0565b818103608083015261376b8184613451565b9050969550505050505056fea264697066735822122045f361db646fc888395b23f3c1631b86ac953232b187ec40c796887184c1500f64736f6c63430008090033",
  "linkReferences": {},
  "deployedLinkReferences": {}
}