{
  "_format": "hh-sol-artifact-1",
  "contractName": "PolygonNFT721",
  "sourceName": "contracts/nft-minter/nft-minter-contracts/single-mint/NFT721.sol",
  "abi": [
    {
      "inputs": [
        {
          "internalType": "address",
          "name": "_forwarder",
          "type": "address"
        }
      ],
      "stateMutability": "nonpayable",
      "type": "constructor"
    },
    {
      "anonymous": false,
      "inputs": [
        {
          "indexed": true,
          "internalType": "address",
          "name": "owner",
          "type": "address"
        },
        {
          "indexed": true,
          "internalType": "address",
          "name": "approved",
          "type": "address"
        },
        {
          "indexed": true,
          "internalType": "uint256",
          "name": "tokenId",
          "type": "uint256"
        }
      ],
      "name": "Approval",
      "type": "event"
    },
    {
      "anonymous": false,
      "inputs": [
        {
          "indexed": true,
          "internalType": "address",
          "name": "owner",
          "type": "address"
        },
        {
          "indexed": true,
          "internalType": "address",
          "name": "operator",
          "type": "address"
        },
        {
          "indexed": false,
          "internalType": "bool",
          "name": "approved",
          "type": "bool"
        }
      ],
      "name": "ApprovalForAll",
      "type": "event"
    },
    {
      "anonymous": false,
      "inputs": [
        {
          "indexed": true,
          "internalType": "address",
          "name": "previousOwner",
          "type": "address"
        },
        {
          "indexed": true,
          "internalType": "address",
          "name": "newOwner",
          "type": "address"
        }
      ],
      "name": "OwnershipTransferred",
      "type": "event"
    },
    {
      "anonymous": false,
      "inputs": [
        {
          "indexed": true,
          "internalType": "address",
          "name": "from",
          "type": "address"
        },
        {
          "indexed": true,
          "internalType": "address",
          "name": "to",
          "type": "address"
        },
        {
          "indexed": true,
          "internalType": "uint256",
          "name": "tokenId",
          "type": "uint256"
        }
      ],
      "name": "Transfer",
      "type": "event"
    },
    {
      "inputs": [
        {
          "internalType": "address",
          "name": "to",
          "type": "address"
        },
        {
          "internalType": "uint256",
          "name": "tokenId",
          "type": "uint256"
        }
      ],
      "name": "approve",
      "outputs": [],
      "stateMutability": "nonpayable",
      "type": "function"
    },
    {
      "inputs": [
        {
          "internalType": "address",
          "name": "owner",
          "type": "address"
        }
      ],
      "name": "balanceOf",
      "outputs": [
        {
          "internalType": "uint256",
          "name": "",
          "type": "uint256"
        }
      ],
      "stateMutability": "view",
      "type": "function"
    },
    {
      "inputs": [
        {
          "internalType": "uint256",
          "name": "tokenId",
          "type": "uint256"
        }
      ],
      "name": "burn",
      "outputs": [],
      "stateMutability": "nonpayable",
      "type": "function"
    },
    {
      "inputs": [
        {
          "internalType": "uint256",
          "name": "tokenId",
          "type": "uint256"
        }
      ],
      "name": "getApproved",
      "outputs": [
        {
          "internalType": "address",
          "name": "",
          "type": "address"
        }
      ],
      "stateMutability": "view",
      "type": "function"
    },
    {
      "inputs": [
        {
          "internalType": "address",
          "name": "owner",
          "type": "address"
        },
        {
          "internalType": "address",
          "name": "operator",
          "type": "address"
        }
      ],
      "name": "isApprovedForAll",
      "outputs": [
        {
          "internalType": "bool",
          "name": "",
          "type": "bool"
        }
      ],
      "stateMutability": "view",
      "type": "function"
    },
    {
      "inputs": [
        {
          "internalType": "address",
          "name": "forwarder",
          "type": "address"
        }
      ],
      "name": "isTrustedForwarder",
      "outputs": [
        {
          "internalType": "bool",
          "name": "",
          "type": "bool"
        }
      ],
      "stateMutability": "view",
      "type": "function"
    },
    {
      "inputs": [
        {
          "internalType": "address",
          "name": "to",
          "type": "address"
        },
        {
          "internalType": "string",
          "name": "uri",
          "type": "string"
        }
      ],
      "name": "mint",
      "outputs": [
        {
          "internalType": "uint256",
          "name": "",
          "type": "uint256"
        }
      ],
      "stateMutability": "nonpayable",
      "type": "function"
    },
    {
      "inputs": [],
      "name": "name",
      "outputs": [
        {
          "internalType": "string",
          "name": "",
          "type": "string"
        }
      ],
      "stateMutability": "view",
      "type": "function"
    },
    {
      "inputs": [],
      "name": "owner",
      "outputs": [
        {
          "internalType": "address",
          "name": "",
          "type": "address"
        }
      ],
      "stateMutability": "view",
      "type": "function"
    },
    {
      "inputs": [
        {
          "internalType": "uint256",
          "name": "tokenId",
          "type": "uint256"
        }
      ],
      "name": "ownerOf",
      "outputs": [
        {
          "internalType": "address",
          "name": "",
          "type": "address"
        }
      ],
      "stateMutability": "view",
      "type": "function"
    },
    {
      "inputs": [],
      "name": "renounceOwnership",
      "outputs": [],
      "stateMutability": "nonpayable",
      "type": "function"
    },
    {
      "inputs": [
        {
          "internalType": "address",
          "name": "from",
          "type": "address"
        },
        {
          "internalType": "address",
          "name": "to",
          "type": "address"
        },
        {
          "internalType": "uint256",
          "name": "tokenId",
          "type": "uint256"
        }
      ],
      "name": "safeTransferFrom",
      "outputs": [],
      "stateMutability": "nonpayable",
      "type": "function"
    },
    {
      "inputs": [
        {
          "internalType": "address",
          "name": "from",
          "type": "address"
        },
        {
          "internalType": "address",
          "name": "to",
          "type": "address"
        },
        {
          "internalType": "uint256",
          "name": "tokenId",
          "type": "uint256"
        },
        {
          "internalType": "bytes",
          "name": "_data",
          "type": "bytes"
        }
      ],
      "name": "safeTransferFrom",
      "outputs": [],
      "stateMutability": "nonpayable",
      "type": "function"
    },
    {
      "inputs": [
        {
          "internalType": "address",
          "name": "operator",
          "type": "address"
        },
        {
          "internalType": "bool",
          "name": "approved",
          "type": "bool"
        }
      ],
      "name": "setApprovalForAll",
      "outputs": [],
      "stateMutability": "nonpayable",
      "type": "function"
    },
    {
      "inputs": [
        {
          "internalType": "bytes4",
          "name": "interfaceId",
          "type": "bytes4"
        }
      ],
      "name": "supportsInterface",
      "outputs": [
        {
          "internalType": "bool",
          "name": "",
          "type": "bool"
        }
      ],
      "stateMutability": "view",
      "type": "function"
    },
    {
      "inputs": [],
      "name": "symbol",
      "outputs": [
        {
          "internalType": "string",
          "name": "",
          "type": "string"
        }
      ],
      "stateMutability": "view",
      "type": "function"
    },
    {
      "inputs": [
        {
          "internalType": "uint256",
          "name": "tokenId",
          "type": "uint256"
        }
      ],
      "name": "tokenURI",
      "outputs": [
        {
          "internalType": "string",
          "name": "",
          "type": "string"
        }
      ],
      "stateMutability": "view",
      "type": "function"
    },
    {
      "inputs": [
        {
          "internalType": "address",
          "name": "from",
          "type": "address"
        },
        {
          "internalType": "address",
          "name": "to",
          "type": "address"
        },
        {
          "internalType": "uint256",
          "name": "tokenId",
          "type": "uint256"
        }
      ],
      "name": "transferFrom",
      "outputs": [],
      "stateMutability": "nonpayable",
      "type": "function"
    },
    {
      "inputs": [
        {
          "internalType": "address",
          "name": "newOwner",
          "type": "address"
        }
      ],
      "name": "transferOwnership",
      "outputs": [],
      "stateMutability": "nonpayable",
      "type": "function"
    },
    {
      "inputs": [],
      "name": "trustedForwarder",
      "outputs": [
        {
          "internalType": "address",
          "name": "",
          "type": "address"
        }
      ],
      "stateMutability": "view",
      "type": "function"
    }
  ],
  "bytecode": "0x60a06040523480156200001157600080fd5b5060405162003843380380620038438339818101604052810190620000379190620003fd565b806040518060400160405280600b81526020017f4d696e744e46542d3732310000000000000000000000000000000000000000008152506040518060400160405280600881526020017f4d4e46542d3732310000000000000000000000000000000000000000000000008152508160009080519060200190620000bc929190620002e3565b508060019080519060200190620000d5929190620002e3565b5050508073ffffffffffffffffffffffffffffffffffffffff1660808173ffffffffffffffffffffffffffffffffffffffff1681525050506200012d620001216200017560201b60201c565b6200019160201b60201c565b80600860006101000a81548173ffffffffffffffffffffffffffffffffffffffff021916908373ffffffffffffffffffffffffffffffffffffffff1602179055505062000494565b60006200018c6200025760201b62000ecb1760201c565b905090565b6000600760009054906101000a900473ffffffffffffffffffffffffffffffffffffffff16905081600760006101000a81548173ffffffffffffffffffffffffffffffffffffffff021916908373ffffffffffffffffffffffffffffffffffffffff1602179055508173ffffffffffffffffffffffffffffffffffffffff168173ffffffffffffffffffffffffffffffffffffffff167f8be0079c531659141344cd1fd0a4f28419497f9722a3daafe3b4186f6b6457e060405160405180910390a35050565b60006200026a33620002a160201b60201c565b156200028057601436033560601c90506200029d565b62000295620002db60201b62000efd1760201c565b90506200029e565b5b90565b600060805173ffffffffffffffffffffffffffffffffffffffff168273ffffffffffffffffffffffffffffffffffffffff16149050919050565b600033905090565b828054620002f1906200045e565b90600052602060002090601f01602090048101928262000315576000855562000361565b82601f106200033057805160ff191683800117855562000361565b8280016001018555821562000361579182015b828111156200036057825182559160200191906001019062000343565b5b50905062000370919062000374565b5090565b5b808211156200038f57600081600090555060010162000375565b5090565b600080fd5b600073ffffffffffffffffffffffffffffffffffffffff82169050919050565b6000620003c58262000398565b9050919050565b620003d781620003b8565b8114620003e357600080fd5b50565b600081519050620003f781620003cc565b92915050565b60006020828403121562000416576200041562000393565b5b60006200042684828501620003e6565b91505092915050565b7f4e487b7100000000000000000000000000000000000000000000000000000000600052602260045260246000fd5b600060028204905060018216806200047757607f821691505b602082108114156200048e576200048d6200042f565b5b50919050565b608051613393620004b0600039600061081501526133936000f3fe608060405234801561001057600080fd5b506004361061012c5760003560e01c8063715018a6116100ad578063b88d4fde11610071578063b88d4fde1461032f578063c87b56dd1461034b578063d0def5211461037b578063e985e9c5146103ab578063f2fde38b146103db5761012c565b8063715018a6146102af5780637da0a877146102b95780638da5cb5b146102d757806395d89b41146102f5578063a22cb465146103135761012c565b806342842e0e116100f457806342842e0e146101e757806342966c6814610203578063572b6c051461021f5780636352211e1461024f57806370a082311461027f5761012c565b806301ffc9a71461013157806306fdde0314610161578063081812fc1461017f578063095ea7b3146101af57806323b872dd146101cb575b600080fd5b61014b60048036038101906101469190611f8b565b6103f7565b6040516101589190611fd3565b60405180910390f35b6101696104d9565b6040516101769190612087565b60405180910390f35b610199600480360381019061019491906120df565b61056b565b6040516101a6919061214d565b60405180910390f35b6101c960048036038101906101c49190612194565b6105f0565b005b6101e560048036038101906101e091906121d4565b610708565b005b61020160048036038101906101fc91906121d4565b610768565b005b61021d600480360381019061021891906120df565b610788565b005b61023960048036038101906102349190612227565b610811565b6040516102469190611fd3565b60405180910390f35b610269600480360381019061026491906120df565b610869565b604051610276919061214d565b60405180910390f35b61029960048036038101906102949190612227565b61091b565b6040516102a69190612263565b60405180910390f35b6102b76109d3565b005b6102c1610a5b565b6040516102ce919061214d565b60405180910390f35b6102df610a81565b6040516102ec919061214d565b60405180910390f35b6102fd610aab565b60405161030a9190612087565b60405180910390f35b61032d600480360381019061032891906122aa565b610b3d565b005b6103496004803603810190610344919061241f565b610b53565b005b610365600480360381019061036091906120df565b610bb5565b6040516103729190612087565b60405180910390f35b61039560048036038101906103909190612543565b610d07565b6040516103a29190612263565b60405180910390f35b6103c560048036038101906103c0919061259f565b610d3f565b6040516103d29190611fd3565b60405180910390f35b6103f560048036038101906103f09190612227565b610dd3565b005b60007f80ac58cd000000000000000000000000000000000000000000000000000000007bffffffffffffffffffffffffffffffffffffffffffffffffffffffff1916827bffffffffffffffffffffffffffffffffffffffffffffffffffffffff191614806104c257507f5b5e139f000000000000000000000000000000000000000000000000000000007bffffffffffffffffffffffffffffffffffffffffffffffffffffffff1916827bffffffffffffffffffffffffffffffffffffffffffffffffffffffff1916145b806104d257506104d182610f05565b5b9050919050565b6060600080546104e89061260e565b80601f01602080910402602001604051908101604052809291908181526020018280546105149061260e565b80156105615780601f1061053657610100808354040283529160200191610561565b820191906000526020600020905b81548152906001019060200180831161054457829003601f168201915b5050505050905090565b600061057682610f6f565b6105b5576040517f08c379a00000000000000000000000000000000000000000000000000000000081526004016105ac906126b2565b60405180910390fd5b6004600083815260200190815260200160002060009054906101000a900473ffffffffffffffffffffffffffffffffffffffff169050919050565b60006105fb82610869565b90508073ffffffffffffffffffffffffffffffffffffffff168373ffffffffffffffffffffffffffffffffffffffff16141561066c576040517f08c379a000000000000000000000000000000000000000000000000000000000815260040161066390612744565b60405180910390fd5b8073ffffffffffffffffffffffffffffffffffffffff1661068b610fdb565b73ffffffffffffffffffffffffffffffffffffffff1614806106ba57506106b9816106b4610fdb565b610d3f565b5b6106f9576040517f08c379a00000000000000000000000000000000000000000000000000000000081526004016106f0906127d6565b60405180910390fd5b6107038383610fea565b505050565b610719610713610fdb565b826110a3565b610758576040517f08c379a000000000000000000000000000000000000000000000000000000000815260040161074f90612868565b60405180910390fd5b610763838383611181565b505050565b61078383838360405180602001604052806000815250610b53565b505050565b61079181610869565b73ffffffffffffffffffffffffffffffffffffffff166107af610fdb565b73ffffffffffffffffffffffffffffffffffffffff1614610805576040517f08c379a00000000000000000000000000000000000000000000000000000000081526004016107fc906128d4565b60405180910390fd5b61080e816113e8565b50565b60007f000000000000000000000000000000000000000000000000000000000000000073ffffffffffffffffffffffffffffffffffffffff168273ffffffffffffffffffffffffffffffffffffffff16149050919050565b6000806002600084815260200190815260200160002060009054906101000a900473ffffffffffffffffffffffffffffffffffffffff169050600073ffffffffffffffffffffffffffffffffffffffff168173ffffffffffffffffffffffffffffffffffffffff161415610912576040517f08c379a000000000000000000000000000000000000000000000000000000000815260040161090990612966565b60405180910390fd5b80915050919050565b60008073ffffffffffffffffffffffffffffffffffffffff168273ffffffffffffffffffffffffffffffffffffffff16141561098c576040517f08c379a0000000000000000000000000000000000000000000000000000000008152600401610983906129f8565b60405180910390fd5b600360008373ffffffffffffffffffffffffffffffffffffffff1673ffffffffffffffffffffffffffffffffffffffff168152602001908152602001600020549050919050565b6109db610fdb565b73ffffffffffffffffffffffffffffffffffffffff166109f9610a81565b73ffffffffffffffffffffffffffffffffffffffff1614610a4f576040517f08c379a0000000000000000000000000000000000000000000000000000000008152600401610a4690612a64565b60405180910390fd5b610a59600061143b565b565b600860009054906101000a900473ffffffffffffffffffffffffffffffffffffffff1681565b6000600760009054906101000a900473ffffffffffffffffffffffffffffffffffffffff16905090565b606060018054610aba9061260e565b80601f0160208091040260200160405190810160405280929190818152602001828054610ae69061260e565b8015610b335780601f10610b0857610100808354040283529160200191610b33565b820191906000526020600020905b815481529060010190602001808311610b1657829003601f168201915b5050505050905090565b610b4f610b48610fdb565b8383611501565b5050565b610b64610b5e610fdb565b836110a3565b610ba3576040517f08c379a0000000000000000000000000000000000000000000000000000000008152600401610b9a90612868565b60405180910390fd5b610baf8484848461166e565b50505050565b6060610bc082610f6f565b610bff576040517f08c379a0000000000000000000000000000000000000000000000000000000008152600401610bf690612af6565b60405180910390fd5b6000600660008481526020019081526020016000208054610c1f9061260e565b80601f0160208091040260200160405190810160405280929190818152602001828054610c4b9061260e565b8015610c985780601f10610c6d57610100808354040283529160200191610c98565b820191906000526020600020905b815481529060010190602001808311610c7b57829003601f168201915b505050505090506000610ca96116ca565b9050600081511415610cbf578192505050610d02565b600082511115610cf4578082604051602001610cdc929190612b52565b60405160208183030381529060405292505050610d02565b610cfd846116e1565b925050505b919050565b6000610d136009611788565b6000610d1f600961179e565b9050610d2b84826117ac565b610d358184611986565b8091505092915050565b6000600560008473ffffffffffffffffffffffffffffffffffffffff1673ffffffffffffffffffffffffffffffffffffffff16815260200190815260200160002060008373ffffffffffffffffffffffffffffffffffffffff1673ffffffffffffffffffffffffffffffffffffffff16815260200190815260200160002060009054906101000a900460ff16905092915050565b610ddb610fdb565b73ffffffffffffffffffffffffffffffffffffffff16610df9610a81565b73ffffffffffffffffffffffffffffffffffffffff1614610e4f576040517f08c379a0000000000000000000000000000000000000000000000000000000008152600401610e4690612a64565b60405180910390fd5b600073ffffffffffffffffffffffffffffffffffffffff168173ffffffffffffffffffffffffffffffffffffffff161415610ebf576040517f08c379a0000000000000000000000000000000000000000000000000000000008152600401610eb690612be8565b60405180910390fd5b610ec88161143b565b50565b6000610ed633610811565b15610eea57601436033560601c9050610ef9565b610ef2610efd565b9050610efa565b5b90565b600033905090565b60007f01ffc9a7000000000000000000000000000000000000000000000000000000007bffffffffffffffffffffffffffffffffffffffffffffffffffffffff1916827bffffffffffffffffffffffffffffffffffffffffffffffffffffffff1916149050919050565b60008073ffffffffffffffffffffffffffffffffffffffff166002600084815260200190815260200160002060009054906101000a900473ffffffffffffffffffffffffffffffffffffffff1673ffffffffffffffffffffffffffffffffffffffff1614159050919050565b6000610fe5610ecb565b905090565b816004600083815260200190815260200160002060006101000a81548173ffffffffffffffffffffffffffffffffffffffff021916908373ffffffffffffffffffffffffffffffffffffffff160217905550808273ffffffffffffffffffffffffffffffffffffffff1661105d83610869565b73ffffffffffffffffffffffffffffffffffffffff167f8c5be1e5ebec7d5bd14f71427d1e84f3dd0314c0f7b2291e5b200ac8c7c3b92560405160405180910390a45050565b60006110ae82610f6f565b6110ed576040517f08c379a00000000000000000000000000000000000000000000000000000000081526004016110e490612c7a565b60405180910390fd5b60006110f883610869565b90508073ffffffffffffffffffffffffffffffffffffffff168473ffffffffffffffffffffffffffffffffffffffff16148061116757508373ffffffffffffffffffffffffffffffffffffffff1661114f8461056b565b73ffffffffffffffffffffffffffffffffffffffff16145b8061117857506111778185610d3f565b5b91505092915050565b8273ffffffffffffffffffffffffffffffffffffffff166111a182610869565b73ffffffffffffffffffffffffffffffffffffffff16146111f7576040517f08c379a00000000000000000000000000000000000000000000000000000000081526004016111ee90612d0c565b60405180910390fd5b600073ffffffffffffffffffffffffffffffffffffffff168273ffffffffffffffffffffffffffffffffffffffff161415611267576040517f08c379a000000000000000000000000000000000000000000000000000000000815260040161125e90612d9e565b60405180910390fd5b6112728383836119fa565b61127d600082610fea565b6001600360008573ffffffffffffffffffffffffffffffffffffffff1673ffffffffffffffffffffffffffffffffffffffff16815260200190815260200160002060008282546112cd9190612ded565b925050819055506001600360008473ffffffffffffffffffffffffffffffffffffffff1673ffffffffffffffffffffffffffffffffffffffff16815260200190815260200160002060008282546113249190612e21565b92505081905550816002600083815260200190815260200160002060006101000a81548173ffffffffffffffffffffffffffffffffffffffff021916908373ffffffffffffffffffffffffffffffffffffffff160217905550808273ffffffffffffffffffffffffffffffffffffffff168473ffffffffffffffffffffffffffffffffffffffff167fddf252ad1be2c89b69c2b068fc378daa952ba7f163c4a11628f55a4df523b3ef60405160405180910390a46113e38383836119ff565b505050565b6113f181611a04565b60006006600083815260200190815260200160002080546114119061260e565b905014611438576006600082815260200190815260200160002060006114379190611e3c565b5b50565b6000600760009054906101000a900473ffffffffffffffffffffffffffffffffffffffff16905081600760006101000a81548173ffffffffffffffffffffffffffffffffffffffff021916908373ffffffffffffffffffffffffffffffffffffffff1602179055508173ffffffffffffffffffffffffffffffffffffffff168173ffffffffffffffffffffffffffffffffffffffff167f8be0079c531659141344cd1fd0a4f28419497f9722a3daafe3b4186f6b6457e060405160405180910390a35050565b8173ffffffffffffffffffffffffffffffffffffffff168373ffffffffffffffffffffffffffffffffffffffff161415611570576040517f08c379a000000000000000000000000000000000000000000000000000000000815260040161156790612ec3565b60405180910390fd5b80600560008573ffffffffffffffffffffffffffffffffffffffff1673ffffffffffffffffffffffffffffffffffffffff16815260200190815260200160002060008473ffffffffffffffffffffffffffffffffffffffff1673ffffffffffffffffffffffffffffffffffffffff16815260200190815260200160002060006101000a81548160ff0219169083151502179055508173ffffffffffffffffffffffffffffffffffffffff168373ffffffffffffffffffffffffffffffffffffffff167f17307eab39ab6107e8899845ad3d59bd9653f200f220920489ca2b5937696c31836040516116619190611fd3565b60405180910390a3505050565b611679848484611181565b61168584848484611b21565b6116c4576040517f08c379a00000000000000000000000000000000000000000000000000000000081526004016116bb90612f55565b60405180910390fd5b50505050565b606060405180602001604052806000815250905090565b60606116ec82610f6f565b61172b576040517f08c379a000000000000000000000000000000000000000000000000000000000815260040161172290612fe7565b60405180910390fd5b60006117356116ca565b905060008151116117555760405180602001604052806000815250611780565b8061175f84611cb8565b604051602001611770929190612b52565b6040516020818303038152906040525b915050919050565b6001816000016000828254019250508190555050565b600081600001549050919050565b600073ffffffffffffffffffffffffffffffffffffffff168273ffffffffffffffffffffffffffffffffffffffff16141561181c576040517f08c379a000000000000000000000000000000000000000000000000000000000815260040161181390613053565b60405180910390fd5b61182581610f6f565b15611865576040517f08c379a000000000000000000000000000000000000000000000000000000000815260040161185c906130bf565b60405180910390fd5b611871600083836119fa565b6001600360008473ffffffffffffffffffffffffffffffffffffffff1673ffffffffffffffffffffffffffffffffffffffff16815260200190815260200160002060008282546118c19190612e21565b92505081905550816002600083815260200190815260200160002060006101000a81548173ffffffffffffffffffffffffffffffffffffffff021916908373ffffffffffffffffffffffffffffffffffffffff160217905550808273ffffffffffffffffffffffffffffffffffffffff16600073ffffffffffffffffffffffffffffffffffffffff167fddf252ad1be2c89b69c2b068fc378daa952ba7f163c4a11628f55a4df523b3ef60405160405180910390a4611982600083836119ff565b5050565b61198f82610f6f565b6119ce576040517f08c379a00000000000000000000000000000000000000000000000000000000081526004016119c590613151565b60405180910390fd5b806006600084815260200190815260200160002090805190602001906119f5929190611e7c565b505050565b505050565b505050565b6000611a0f82610869565b9050611a1d816000846119fa565b611a28600083610fea565b6001600360008373ffffffffffffffffffffffffffffffffffffffff1673ffffffffffffffffffffffffffffffffffffffff1681526020019081526020016000206000828254611a789190612ded565b925050819055506002600083815260200190815260200160002060006101000a81549073ffffffffffffffffffffffffffffffffffffffff021916905581600073ffffffffffffffffffffffffffffffffffffffff168273ffffffffffffffffffffffffffffffffffffffff167fddf252ad1be2c89b69c2b068fc378daa952ba7f163c4a11628f55a4df523b3ef60405160405180910390a4611b1d816000846119ff565b5050565b6000611b428473ffffffffffffffffffffffffffffffffffffffff16611e19565b15611cab578373ffffffffffffffffffffffffffffffffffffffff1663150b7a02611b6b610fdb565b8786866040518563ffffffff1660e01b8152600401611b8d94939291906131c6565b602060405180830381600087803b158015611ba757600080fd5b505af1925050508015611bd857506040513d601f19601f82011682018060405250810190611bd59190613227565b60015b611c5b573d8060008114611c08576040519150601f19603f3d011682016040523d82523d6000602084013e611c0d565b606091505b50600081511415611c53576040517f08c379a0000000000000000000000000000000000000000000000000000000008152600401611c4a90612f55565b60405180910390fd5b805181602001fd5b63150b7a0260e01b7bffffffffffffffffffffffffffffffffffffffffffffffffffffffff1916817bffffffffffffffffffffffffffffffffffffffffffffffffffffffff191614915050611cb0565b600190505b949350505050565b60606000821415611d00576040518060400160405280600181526020017f30000000000000000000000000000000000000000000000000000000000000008152509050611e14565b600082905060005b60008214611d32578080611d1b90613254565b915050600a82611d2b91906132cc565b9150611d08565b60008167ffffffffffffffff811115611d4e57611d4d6122f4565b5b6040519080825280601f01601f191660200182016040528015611d805781602001600182028036833780820191505090505b5090505b60008514611e0d57600182611d999190612ded565b9150600a85611da891906132fd565b6030611db49190612e21565b60f81b818381518110611dca57611dc961332e565b5b60200101907effffffffffffffffffffffffffffffffffffffffffffffffffffffffffffff1916908160001a905350600a85611e0691906132cc565b9450611d84565b8093505050505b919050565b6000808273ffffffffffffffffffffffffffffffffffffffff163b119050919050565b508054611e489061260e565b6000825580601f10611e5a5750611e79565b601f016020900490600052602060002090810190611e789190611f02565b5b50565b828054611e889061260e565b90600052602060002090601f016020900481019282611eaa5760008555611ef1565b82601f10611ec357805160ff1916838001178555611ef1565b82800160010185558215611ef1579182015b82811115611ef0578251825591602001919060010190611ed5565b5b509050611efe9190611f02565b5090565b5b80821115611f1b576000816000905550600101611f03565b5090565b6000604051905090565b600080fd5b600080fd5b60007fffffffff0000000000000000000000000000000000000000000000000000000082169050919050565b611f6881611f33565b8114611f7357600080fd5b50565b600081359050611f8581611f5f565b92915050565b600060208284031215611fa157611fa0611f29565b5b6000611faf84828501611f76565b91505092915050565b60008115159050919050565b611fcd81611fb8565b82525050565b6000602082019050611fe86000830184611fc4565b92915050565b600081519050919050565b600082825260208201905092915050565b60005b8381101561202857808201518184015260208101905061200d565b83811115612037576000848401525b50505050565b6000601f19601f8301169050919050565b600061205982611fee565b6120638185611ff9565b935061207381856020860161200a565b61207c8161203d565b840191505092915050565b600060208201905081810360008301526120a1818461204e565b905092915050565b6000819050919050565b6120bc816120a9565b81146120c757600080fd5b50565b6000813590506120d9816120b3565b92915050565b6000602082840312156120f5576120f4611f29565b5b6000612103848285016120ca565b91505092915050565b600073ffffffffffffffffffffffffffffffffffffffff82169050919050565b60006121378261210c565b9050919050565b6121478161212c565b82525050565b6000602082019050612162600083018461213e565b92915050565b6121718161212c565b811461217c57600080fd5b50565b60008135905061218e81612168565b92915050565b600080604083850312156121ab576121aa611f29565b5b60006121b98582860161217f565b92505060206121ca858286016120ca565b9150509250929050565b6000806000606084860312156121ed576121ec611f29565b5b60006121fb8682870161217f565b935050602061220c8682870161217f565b925050604061221d868287016120ca565b9150509250925092565b60006020828403121561223d5761223c611f29565b5b600061224b8482850161217f565b91505092915050565b61225d816120a9565b82525050565b60006020820190506122786000830184612254565b92915050565b61228781611fb8565b811461229257600080fd5b50565b6000813590506122a48161227e565b92915050565b600080604083850312156122c1576122c0611f29565b5b60006122cf8582860161217f565b92505060206122e085828601612295565b9150509250929050565b600080fd5b600080fd5b7f4e487b7100000000000000000000000000000000000000000000000000000000600052604160045260246000fd5b61232c8261203d565b810181811067ffffffffffffffff8211171561234b5761234a6122f4565b5b80604052505050565b600061235e611f1f565b905061236a8282612323565b919050565b600067ffffffffffffffff82111561238a576123896122f4565b5b6123938261203d565b9050602081019050919050565b82818337600083830152505050565b60006123c26123bd8461236f565b612354565b9050828152602081018484840111156123de576123dd6122ef565b5b6123e98482856123a0565b509392505050565b600082601f830112612406576124056122ea565b5b81356124168482602086016123af565b91505092915050565b6000806000806080858703121561243957612438611f29565b5b60006124478782880161217f565b94505060206124588782880161217f565b9350506040612469878288016120ca565b925050606085013567ffffffffffffffff81111561248a57612489611f2e565b5b612496878288016123f1565b91505092959194509250565b600067ffffffffffffffff8211156124bd576124bc6122f4565b5b6124c68261203d565b9050602081019050919050565b60006124e66124e1846124a2565b612354565b905082815260208101848484011115612502576125016122ef565b5b61250d8482856123a0565b509392505050565b600082601f83011261252a576125296122ea565b5b813561253a8482602086016124d3565b91505092915050565b6000806040838503121561255a57612559611f29565b5b60006125688582860161217f565b925050602083013567ffffffffffffffff81111561258957612588611f2e565b5b61259585828601612515565b9150509250929050565b600080604083850312156125b6576125b5611f29565b5b60006125c48582860161217f565b92505060206125d58582860161217f565b9150509250929050565b7f4e487b7100000000000000000000000000000000000000000000000000000000600052602260045260246000fd5b6000600282049050600182168061262657607f821691505b6020821081141561263a576126396125df565b5b50919050565b7f4552433732313a20617070726f76656420717565727920666f72206e6f6e657860008201527f697374656e7420746f6b656e0000000000000000000000000000000000000000602082015250565b600061269c602c83611ff9565b91506126a782612640565b604082019050919050565b600060208201905081810360008301526126cb8161268f565b9050919050565b7f4552433732313a20617070726f76616c20746f2063757272656e74206f776e6560008201527f7200000000000000000000000000000000000000000000000000000000000000602082015250565b600061272e602183611ff9565b9150612739826126d2565b604082019050919050565b6000602082019050818103600083015261275d81612721565b9050919050565b7f4552433732313a20617070726f76652063616c6c6572206973206e6f74206f7760008201527f6e6572206e6f7220617070726f76656420666f7220616c6c0000000000000000602082015250565b60006127c0603883611ff9565b91506127cb82612764565b604082019050919050565b600060208201905081810360008301526127ef816127b3565b9050919050565b7f4552433732313a207472616e736665722063616c6c6572206973206e6f74206f60008201527f776e6572206e6f7220617070726f766564000000000000000000000000000000602082015250565b6000612852603183611ff9565b915061285d826127f6565b604082019050919050565b6000602082019050818103600083015261288181612845565b9050919050565b7f4552433732313a2053656e646572206973206e6f7420746865206f776e657200600082015250565b60006128be601f83611ff9565b91506128c982612888565b602082019050919050565b600060208201905081810360008301526128ed816128b1565b9050919050565b7f4552433732313a206f776e657220717565727920666f72206e6f6e657869737460008201527f656e7420746f6b656e0000000000000000000000000000000000000000000000602082015250565b6000612950602983611ff9565b915061295b826128f4565b604082019050919050565b6000602082019050818103600083015261297f81612943565b9050919050565b7f4552433732313a2062616c616e636520717565727920666f7220746865207a6560008201527f726f206164647265737300000000000000000000000000000000000000000000602082015250565b60006129e2602a83611ff9565b91506129ed82612986565b604082019050919050565b60006020820190508181036000830152612a11816129d5565b9050919050565b7f4f776e61626c653a2063616c6c6572206973206e6f7420746865206f776e6572600082015250565b6000612a4e602083611ff9565b9150612a5982612a18565b602082019050919050565b60006020820190508181036000830152612a7d81612a41565b9050919050565b7f45524337323155524953746f726167653a2055524920717565727920666f722060008201527f6e6f6e6578697374656e7420746f6b656e000000000000000000000000000000602082015250565b6000612ae0603183611ff9565b9150612aeb82612a84565b604082019050919050565b60006020820190508181036000830152612b0f81612ad3565b9050919050565b600081905092915050565b6000612b2c82611fee565b612b368185612b16565b9350612b4681856020860161200a565b80840191505092915050565b6000612b5e8285612b21565b9150612b6a8284612b21565b91508190509392505050565b7f4f776e61626c653a206e6577206f776e657220697320746865207a65726f206160008201527f6464726573730000000000000000000000000000000000000000000000000000602082015250565b6000612bd2602683611ff9565b9150612bdd82612b76565b604082019050919050565b60006020820190508181036000830152612c0181612bc5565b9050919050565b7f4552433732313a206f70657261746f7220717565727920666f72206e6f6e657860008201527f697374656e7420746f6b656e0000000000000000000000000000000000000000602082015250565b6000612c64602c83611ff9565b9150612c6f82612c08565b604082019050919050565b60006020820190508181036000830152612c9381612c57565b9050919050565b7f4552433732313a207472616e736665722066726f6d20696e636f72726563742060008201527f6f776e6572000000000000000000000000000000000000000000000000000000602082015250565b6000612cf6602583611ff9565b9150612d0182612c9a565b604082019050919050565b60006020820190508181036000830152612d2581612ce9565b9050919050565b7f4552433732313a207472616e7366657220746f20746865207a65726f2061646460008201527f7265737300000000000000000000000000000000000000000000000000000000602082015250565b6000612d88602483611ff9565b9150612d9382612d2c565b604082019050919050565b60006020820190508181036000830152612db781612d7b565b9050919050565b7f4e487b7100000000000000000000000000000000000000000000000000000000600052601160045260246000fd5b6000612df8826120a9565b9150612e03836120a9565b925082821015612e1657612e15612dbe565b5b828203905092915050565b6000612e2c826120a9565b9150612e37836120a9565b9250827fffffffffffffffffffffffffffffffffffffffffffffffffffffffffffffffff03821115612e6c57612e6b612dbe565b5b828201905092915050565b7f4552433732313a20617070726f766520746f2063616c6c657200000000000000600082015250565b6000612ead601983611ff9565b9150612eb882612e77565b602082019050919050565b60006020820190508181036000830152612edc81612ea0565b9050919050565b7f4552433732313a207472616e7366657220746f206e6f6e20455243373231526560008201527f63656976657220696d706c656d656e7465720000000000000000000000000000602082015250565b6000612f3f603283611ff9565b9150612f4a82612ee3565b604082019050919050565b60006020820190508181036000830152612f6e81612f32565b9050919050565b7f4552433732314d657461646174613a2055524920717565727920666f72206e6f60008201527f6e6578697374656e7420746f6b656e0000000000000000000000000000000000602082015250565b6000612fd1602f83611ff9565b9150612fdc82612f75565b604082019050919050565b6000602082019050818103600083015261300081612fc4565b9050919050565b7f4552433732313a206d696e7420746f20746865207a65726f2061646472657373600082015250565b600061303d602083611ff9565b915061304882613007565b602082019050919050565b6000602082019050818103600083015261306c81613030565b9050919050565b7f4552433732313a20746f6b656e20616c7265616479206d696e74656400000000600082015250565b60006130a9601c83611ff9565b91506130b482613073565b602082019050919050565b600060208201905081810360008301526130d88161309c565b9050919050565b7f45524337323155524953746f726167653a2055524920736574206f66206e6f6e60008201527f6578697374656e7420746f6b656e000000000000000000000000000000000000602082015250565b600061313b602e83611ff9565b9150613146826130df565b604082019050919050565b6000602082019050818103600083015261316a8161312e565b9050919050565b600081519050919050565b600082825260208201905092915050565b600061319882613171565b6131a2818561317c565b93506131b281856020860161200a565b6131bb8161203d565b840191505092915050565b60006080820190506131db600083018761213e565b6131e8602083018661213e565b6131f56040830185612254565b8181036060830152613207818461318d565b905095945050505050565b60008151905061322181611f5f565b92915050565b60006020828403121561323d5761323c611f29565b5b600061324b84828501613212565b91505092915050565b600061325f826120a9565b91507fffffffffffffffffffffffffffffffffffffffffffffffffffffffffffffffff82141561329257613291612dbe565b5b600182019050919050565b7f4e487b7100000000000000000000000000000000000000000000000000000000600052601260045260246000fd5b60006132d7826120a9565b91506132e2836120a9565b9250826132f2576132f161329d565b5b828204905092915050565b6000613308826120a9565b9150613313836120a9565b9250826133235761332261329d565b5b828206905092915050565b7f4e487b7100000000000000000000000000000000000000000000000000000000600052603260045260246000fdfea2646970667358221220784f1486f02696cd19e4b978b8baf360b68a0d6d24bfb7a337d245b56257578764736f6c63430008090033",
  "linkReferences": {},
  "deployedLinkReferences": {}
}